:100000000C942A000C9451010C9478010C949F01DB
:100010000C94C6010C94ED010C9414020C943B0258
:100020000C9462020C9489020C94B0020C94D702D6
:100030000C94FE020C9425030C944C030C94730353
:100040000C949A030C94C1030C94E8030C940F04D1
:100050000C94360411241FBECFE5D8E0DEBFCDBF1F
:1000600010E0A0E6B0E0E6E3FFE002C005900D92EC
:10007000AC37B107D9F710E0ACE7B0E001C01D9292
:10008000A93BB107E1F70E945D040C9499070C9419
:100090000000FC018281882321F08F3F09F04AC0D3
:1000A00027C08081813079F0813030F0823091F04A
:1000B000833009F041C015C09AB3818180958923AE
:1000C0008ABB80E0089597B381818095892387BB9F
:1000D00080E0089594B381818095892384BB80E07A
:1000E000089591B381818095892381BB80E0089533
:1000F0008081813069F0813028F0823079F083305E
:10010000E9F412C09AB38181892B8ABB80E00895FB
:1001100097B38181892B87BB80E0089594B3818157
:10012000892B84BB80E0089591B38181892B81BBA9
:1001300080E0089581E0089580E0089580E00895CA
:10014000442321F04F3F09F03FC021C0813069F0C6
:10015000813028F0823079F08330C1F512C08BB342
:10016000609568236BBB80E0089588B36095682331
:1001700068BB80E0089585B36095682365BB80E027
:10018000089582B36095682362BB80E00895813052
:1001900061F0813028F0823069F08330C9F40FC0FB
:1001A0008BB3682B6BBB80E0089588B3682B68BB6A
:1001B00080E0089585B3682B65BB80E0089582B325
:1001C000682B62BB80E0089581E0089580E0089587
:1001D00080E00895FA01813059F0813028F08230B2
:1001E00059F0833081F40CC089B3682360830BC05D
:1001F00086B36823608307C083B36823608303C02A
:1002000080B3682360838081882311F081E080833C
:100210000895813061F0813028F0823069F08330B8
:10022000A9F40FC08BB368276BBB80E0089588B337
:10023000682768BB80E0089585B3682765BB80E0C8
:10024000089582B3682762BB80E0089581E0089535
:100250008FB780688FBF0895BA98C29A8BB78062B3
:100260008BBF84B7806484BF08958B98939A8BB7B3
:1002700080688BBF85B7846085BF85B7877F85BF62
:1002800008958A98929A8BB780648BBF85B78160F6
:1002900085BF85B78D7F85BF08958FB78F778FBF57
:1002A00008951F920F920FB60F9211242F933F9330
:1002B0004F935F936F937F938F939F93AF93BF936E
:1002C000EF93FF93E0919700F09198000995FF91CB
:1002D000EF91BF91AF919F918F917F916F915F91BE
:1002E0004F913F912F910F900FBE0F901F90189537
:1002F0001F920F920FB60F9211242F933F934F939B
:100300005F936F937F938F939F93AF93BF93EF937D
:10031000FF93E0919F00F091A0000995FF91EF916C
:10032000BF91AF919F918F917F916F915F914F910D
:100330003F912F910F900FBE0F901F9018951F9215
:100340000F920FB60F9211242F933F934F935F9309
:100350006F937F938F939F93AF93BF93EF93FF938D
:10036000E0918F00F09190000995FF91EF91BF917E
:10037000AF919F918F917F916F915F914F913F913D
:100380002F910F900FBE0F901F9018951F920F92F4
:100390000FB60F9211242F933F934F935F936F9358
:1003A0007F938F939F93AF93BF93EF93FF93E091CE
:1003B000A500F091A6000995FF91EF91BF91AF9133
:1003C0009F918F917F916F915F914F913F912F916D
:1003D0000F900FBE0F901F9018951F920F920FB69F
:1003E0000F9211242F933F934F935F936F937F93BB
:1003F0008F939F93AF93BF93EF93FF93E09185000B
:10040000F09186000995FF91EF91BF91AF919F9177
:100410008F917F916F915F914F913F912F910F90AD
:100420000FBE0F901F9018951F920F920FB60F924C
:1004300011242F933F934F935F936F937F938F93E9
:100440009F93AF93BF93EF93FF93E091A100F0913F
:10045000A2000995FF91EF91BF91AF919F918F916C
:100460007F916F915F914F913F912F910F900FBEB0
:100470000F901F9018951F920F920FB60F92112494
:100480002F933F934F935F936F937F938F939F939C
:10049000AF93BF93EF93FF93E0918B00F0918C00AB
:1004A0000995FF91EF91BF91AF919F918F917F91AE
:1004B0006F915F914F913F912F910F900FBE0F90D1
:1004C0001F9018951F920F920FB60F9211242F9321
:1004D0003F934F935F936F937F938F939F93AF93CC
:1004E000BF93EF93FF93E0918900F0918A00099503
:1004F000FF91EF91BF91AF919F918F917F916F91FC
:100500005F914F913F912F910F900FBE0F901F90D1
:1005100018951F920F920FB60F9211242F933F93AD
:100520004F935F936F937F938F939F93AF93BF93FB
:10053000EF93FF93E091A300F091A4000995FF9140
:10054000EF91BF91AF919F918F917F916F915F914B
:100550004F913F912F910F900FBE0F901F901895C4
:100560001F920F920FB60F9211242F933F934F9328
:100570005F936F937F938F939F93AF93BF93EF930B
:10058000FF93E0919B00F0919C000995FF91EF9102
:10059000BF91AF919F918F917F916F915F914F919B
:1005A0003F912F910F900FBE0F901F9018951F92A3
:1005B0000F920FB60F9211242F933F934F935F9397
:1005C0006F937F938F939F93AF93BF93EF93FF931B
:1005D000E0916C00F0916D000995FF91EF91BF9152
:1005E000AF919F918F917F916F915F914F913F91CB
:1005F0002F910F900FBE0F901F9018951F920F9282
:100600000FB60F9211242F933F934F935F936F93E5
:100610007F938F939F93AF93BF93EF93FF93E0915B
:100620008D00F0918E000995FF91EF91BF91AF91F0
:100630009F918F917F916F915F914F913F912F91FA
:100640000F900FBE0F901F9018951F920F920FB62C
:100650000F9211242F933F934F935F936F937F9348
:100660008F939F93AF93BF93EF93FF93E09183009A
:10067000F09184000995FF91EF91BF91AF919F9107
:100680008F917F916F915F914F913F912F910F903B
:100690000FBE0F901F9018951F920F920FB60F92DA
:1006A00011242F933F934F935F936F937F938F9377
:1006B0009F93AF93BF93EF93FF93E0919D00F091D1
:1006C0009E000995FF91EF91BF91AF919F918F91FE
:1006D0007F916F915F914F913F912F910F900FBE3E
:1006E0000F901F9018951F920F920FB60F92112422
:1006F0002F933F934F935F936F937F938F939F932A
:10070000AF93BF93EF93FF93E0919900F0919A001C
:100710000995FF91EF91BF91AF919F918F917F913B
:100720006F915F914F913F912F910F900FBE0F905E
:100730001F9018951F920F920FB60F9211242F93AE
:100740003F934F935F936F937F938F939F93AF9359
:10075000BF93EF93FF93E0919300F091940009957C
:10076000FF91EF91BF91AF919F918F917F916F9189
:100770005F914F913F912F910F900FBE0F901F905F
:1007800018951F920F920FB60F9211242F933F933B
:100790004F935F936F937F938F939F93AF93BF9389
:1007A000EF93FF93E0919500F09196000995FF91EA
:1007B000EF91BF91AF919F918F917F916F915F91D9
:1007C0004F913F912F910F900FBE0F901F90189552
:1007D0001F920F920FB60F9211242F933F934F93B6
:1007E0005F936F937F938F939F93AF93BF93EF9399
:1007F000FF93E0919100F09192000995FF91EF91A4
:10080000BF91AF919F918F917F916F915F914F9128
:100810003F912F910F900FBE0F901F9018951F9230
:100820000F920FB60F9211242F933F934F935F9324
:100830006F937F938F939F93AF93BF93EF93FF93A8
:10084000E0918100F09182000995FF91EF91BF91B5
:10085000AF919F918F917F916F915F914F913F9158
:100860002F910F900FBE0F901F9018951F920F920F
:100870000FB60F9211242F933F934F935F936F9373
:100880007F938F939F93AF93BF93EF93FF93E091E9
:100890008700F09188000995FF91EF91BF91AF918A
:1008A0009F918F917F916F915F914F913F912F9188
:1008B0000F900FBE0F901F9018958FEF87BB8ABBCC
:1008C00084BB81BB88BB8BBB85BB82BB8AE790E0C6
:1008D0000E94E40683E897E061E040E021E030E038
:1008E0000E9424070E943E07FDCFCF93DF93EC01C7
:1008F0008B8180937C008881813009F448C08130ED
:1009000020F0823009F0D7C090C083B783BF8981BF
:100910008130B9F0813020F0823009F0CDC024C0A0
:100920008A81882321F0813009F0C8C004C089B7CA
:100930008C7F89BF2CC00E94280189B7816089BF44
:1009400026C083B78D6083BF8A81882321F08130E0
:1009500009F0B6C004C089B78C7F89BF05C00E946A
:10096000280189B7816089BF83B78C6083BF8A8182
:10097000882321F0813009F0A5C004C089B78C7F9D
:1009800089BF05C00E94280189B7816089BF89811C
:100990008130D9F0813020F0823009F095C02DC02F
:1009A0001FBC1EBC8A81882321F0813009F08EC0D3
:1009B00005C089B7837C89BF80E095C00E9428016B
:1009C00089B7846089BF80E08EC08EB59FB587608F
:1009D0009FBD8EBD8A81882321F0813009F078C0C7
:1009E00005C089B7837C89BF80E07DC00E94280153
:1009F00089B7846089BF80E076C08EB59FB5866078
:100A00009FBD8EBD8A81882321F0813009F062C0AC
:100A100005C089B7837C89BF80E065C00E9428013A
:100A200089B7846089BF80E05EC085B585BD898156
:100A3000882321F0813009F04FC011C08A818823BA
:100A400021F0813009F04AC004C089B78F7389BF93
:100A500032C00E94280189B7806C89BF2CC082B542
:100A6000886082BD8A81813051F0813018F08230F7
:100A7000B9F50CC089B78F7389BF81E034C00E947B
:100A8000280189B7806C89BF81E02DC082B588605C
:100A900082BD8A81882319F0813021F505C089B78C
:100AA0008F7389BF81E01FC00E94280189B7806CC5
:100AB00089BF81E018C017C081E015C081E013C074
:100AC00081E011C081E00FC081E00DC081E00BC06A
:100AD00081E009C081E007C081E005C081E003C07A
:100AE00081E001C081E0DF91CF910895813009F468
:100AF0004FC0813020F0823009F0F3C097C0809160
:100B00007C00843021F1853030F4813051F0823026
:100B100009F0E9C011C0863029F1873009F0E3C03F
:100B20002CC06F3F710508F0E0C083B7816083BFC0
:100B3000609562BF80E008956F3F710508F0D7C0EF
:100B400083B7826083BF609562BF80E008956F3F86
:100B5000710508F0CEC083B7836083BF609562BF24
:100B600080E008956F3F710508F0C5C083B78460C9
:100B700083BF609562BF80E008956F3F710508F004
:100B8000BCC083B7856083BF609562BF80E0089575
:100B900080917C00843031F1853030F4813051F027
:100BA000823009F0ACC012C0863041F1873009F0C4
:100BB000A6C030C08EB59FB581609FBD8EBD7095BB
:100BC00061957F4F7DBD6CBD80E008958EB59FB56A
:100BD00082609FBD8EBD709561957F4F7DBD6CBD60
:100BE00080E008958EB59FB583609FBD8EBD7095E2
:100BF00061957F4F7DBD6CBD80E008958EB59FB53A
:100C000084609FBD8EBD709561957F4F7DBD6CBD2D
:100C100080E008958EB59FB585609FBD8EBD7095AF
:100C200061957F4F7DBD6CBD80E0089580917C0013
:100C3000843079F1853040F48230C9F0833010F58A
:100C4000813009F05EC008C08630B9F1863058F1B5
:100C5000873009F056C03BC06F3F710508F053C0A4
:100C600085B5816085BD609564BD80E008956F3F66
:100C7000710508F04AC085B5826085BD609564BD88
:100C800080E0089585B5836085BD609564BD80E092
:100C900008956F3F7105D8F585B5846085BD609571
:100CA00064BD80E008956F3F710598F585B5856056
:100CB00085BD609564BD80E008956F3F710558F56E
:100CC00085B5866085BD609564BD80E008956F3F01
:100CD000710518F585B5876085BD609564BD80E0B8
:100CE000089581E0089580E0089580E0089580E00F
:100CF000089580E0089580E0089580E0089580E000
:100D0000089580E0089580E0089580E0089580E0EF
:100D1000089580E0089580E0089580E0089581308E
:100D200051F0813018F0823091F40CC083B7887F85
:100D300083BF80E008958EB59FB5887F9FBD8EBD2F
:100D400080E0089585B5887F85BD80E0089581E0C5
:100D50000895813059F0813018F08230C9F40EC006
:100D600088B78170FB01808380E0089588B78695FD
:100D700086958170FB01808380E0089588B7829515
:100D80008695869583708170FB01808380E008954D
:100D900081E00895FB01813051F0813018F08230FC
:100DA00089F40BC082B78083118280E008958CB5EE
:100DB0009DB59183808380E0089584B580831182FE
:100DC00080E0089581E008950F931F93CF93DF9300
:100DD000EC011981809180008F5F80938000112346
:100DE00019F0123089F408C00E9428018EE690E0C4
:100DF0000E94750400E009C00E94280184E790E089
:100E00000E947504082F01C001E08881813089F4B7
:100E1000112319F0123079F406C080E06EE070E022
:100E20000E94760509C082E06EE070E00E947605BF
:100E300003C001E001C001E0802FDF91CF911F913D
:100E40000F91089580E00895DC0180918000813049
:100E500099F450E0CA01880F991F480F591FFA01F1
:100E6000EE0FFF1FE955FF4FB183A08365833483E5
:100E70002383128280E0089581E00895CF938091CA
:100E80007F0090E0FC01EE0FFF1F8E0F9F1FFC0103
:100E9000EE0FFF1FE955FF4F4081518183819481FF
:100EA000C58122812130A1F020917D0030917E000A
:100EB0008217930731F4FA01099510927E0010927F
:100EC0007D00CC2329F480917F008F5F80937F0089
:100ED00080E0CF91089590E0FC01EE0FFF1F8E0F90
:100EE0009F1FFC01EE0FFF1FE955FF4F81E082833A
:100EF000089582E060E10E940901089581E060E1C7
:100F00000E94090108958BB380958BBB0895809151
:100F10007D0090917E00019690937E0080937D00ED
:100F20008CB18F5F8CB980E06EE070E00E94760536
:060F30000895F894FFCFC4
:100F3600031CFF02F0FF01F0FF00F0FF870700002F
:0C0F46000104000002000107000001008F
:00000001FF
