:100000000C942A000C9456010C947D010C94A401CC
:100010000C94CB010C94F2010C9419020C94400244
:100020000C9467020C948E020C94B5020C94DC02C2
:100030000C9403030C942A030C9451030C9478033E
:100040000C949F030C94C6030C94ED030C941404BD
:100050000C943B0411241FBECFE5D8E0DEBFCDBF1A
:1000600010E0A0E6B0E0EEEAFFE002C005900D92DD
:10007000A238B107D9F710E0A2E8B0E001C01D92A4
:10008000A23CB107E1F70E9462040C94D5070C94DE
:100090000000FC01009709F450C08281882321F000
:1000A0008F3F09F04CC027C08081813079F08130CA
:1000B00030F0823091F0833009F043C015C09AB31C
:1000C0008181809589238ABB80E0089597B38181DF
:1000D0008095892387BB80E0089594B381818095C2
:1000E000892384BB80E0089591B381818095892321
:1000F00081BB80E008958081813069F0813028F0F3
:10010000823079F08330F9F412C09AB38181892B5F
:100110008ABB80E0089597B38181892B87BB80E0FB
:10012000089594B38181892B84BB80E0089591B3B5
:100130008181892B81BB80E0089586E1089581E06B
:10014000089580E0089580E00895442321F04F3F12
:1001500009F03FC021C0813069F0813028F0823041
:1001600079F08330C1F512C08BB3609568236BBB07
:1001700080E0089588B36095682368BB80E00895A7
:1001800085B36095682365BB80E0089582B3609570
:10019000682362BB80E00895813061F0813028F0EF
:1001A000823069F08330C9F40FC08BB3682B6BBB0E
:1001B00080E0089588B3682B68BB80E0089585B31C
:1001C000682B65BB80E0089582B3682B62BB80E03A
:1001D000089581E0089580E0089580E00895FA018F
:1001E000813059F0813028F0823059F0833081F429
:1001F0000CC089B3682360830BC086B36823608317
:1002000007C083B36823608303C080B3682360831F
:100210008081882311F081E080830895813061F02E
:10022000813028F0823069F08330A9F40FC08BB39D
:1002300068276BBB80E0089588B3682768BB80E0BF
:10024000089585B3682765BB80E0089582B3682769
:1002500062BB80E0089581E008958FB780688FBF0A
:100260000895BA98C29A8BB780628BBF84B78064B6
:1002700084BF08958B98939A8BB780688BBF85B79E
:10028000846085BF85B7877F85BF08958A98929AD5
:100290008BB780648BBF85B7816085BF85B78D7F45
:1002A00085BF08958FB78F778FBF08951F920F92E4
:1002B0000FB60F9211242F933F934F935F936F9339
:1002C0007F938F939F93AF93BF93EF93FF93E091AF
:1002D0009C00F0919D000995FF91EF91BF91AF9126
:1002E0009F918F917F916F915F914F913F912F914E
:1002F0000F900FBE0F901F9018951F920F920FB680
:100300000F9211242F933F934F935F936F937F939B
:100310008F939F93AF93BF93EF93FF93E091A400CC
:10032000F091A5000995FF91EF91BF91AF919F9139
:100330008F917F916F915F914F913F912F910F908E
:100340000FBE0F901F9018951F920F920FB60F922D
:1003500011242F933F934F935F936F937F938F93CA
:100360009F93AF93BF93EF93FF93E0919400F0912D
:1003700095000995FF91EF91BF91AF919F918F915A
:100380007F916F915F914F913F912F910F900FBE91
:100390000F901F9018951F920F920FB60F92112475
:1003A0002F933F934F935F936F937F938F939F937D
:1003B000AF93BF93EF93FF93E091AA00F091AB004E
:1003C0000995FF91EF91BF91AF919F918F917F918F
:1003D0006F915F914F913F912F910F900FBE0F90B2
:1003E0001F9018951F920F920FB60F9211242F9302
:1003F0003F934F935F936F937F938F939F93AF93AD
:10040000BF93EF93FF93E0918A00F0918B000995E1
:10041000FF91EF91BF91AF919F918F917F916F91DC
:100420005F914F913F912F910F900FBE0F901F90B2
:1004300018951F920F920FB60F9211242F933F938E
:100440004F935F936F937F938F939F93AF93BF93DC
:10045000EF93FF93E091A600F091A7000995FF911B
:10046000EF91BF91AF919F918F917F916F915F912C
:100470004F913F912F910F900FBE0F901F901895A5
:100480001F920F920FB60F9211242F933F934F9309
:100490005F936F937F938F939F93AF93BF93EF93EC
:1004A000FF93E0919000F09191000995FF91EF91F9
:1004B000BF91AF919F918F917F916F915F914F917C
:1004C0003F912F910F900FBE0F901F9018951F9284
:1004D0000F920FB60F9211242F933F934F935F9378
:1004E0006F937F938F939F93AF93BF93EF93FF93FC
:1004F000E0918E00F0918F000995FF91EF91BF91EF
:10050000AF919F918F917F916F915F914F913F91AB
:100510002F910F900FBE0F901F9018951F920F9262
:100520000FB60F9211242F933F934F935F936F93C6
:100530007F938F939F93AF93BF93EF93FF93E0913C
:10054000A800F091A9000995FF91EF91BF91AF919B
:100550009F918F917F916F915F914F913F912F91DB
:100560000F900FBE0F901F9018951F920F920FB60D
:100570000F9211242F933F934F935F936F937F9329
:100580008F939F93AF93BF93EF93FF93E091A0005E
:10059000F091A1000995FF91EF91BF91AF919F91CB
:1005A0008F917F916F915F914F913F912F910F901C
:1005B0000FBE0F901F9018951F920F920FB60F92BB
:1005C00011242F933F934F935F936F937F938F9358
:1005D0009F93AF93BF93EF93FF93E0916C00F091E3
:1005E0006D000995FF91EF91BF91AF919F918F9110
:1005F0007F916F915F914F913F912F910F900FBE1F
:100600000F901F9018951F920F920FB60F92112402
:100610002F933F934F935F936F937F938F939F930A
:10062000AF93BF93EF93FF93E0919200F09193000B
:100630000995FF91EF91BF91AF919F918F917F911C
:100640006F915F914F913F912F910F900FBE0F903F
:100650001F9018951F920F920FB60F9211242F938F
:100660003F934F935F936F937F938F939F93AF933A
:10067000BF93EF93FF93E0918800F0918900099573
:10068000FF91EF91BF91AF919F918F917F916F916A
:100690005F914F913F912F910F900FBE0F901F9040
:1006A00018951F920F920FB60F9211242F933F931C
:1006B0004F935F936F937F938F939F93AF93BF936A
:1006C000EF93FF93E091A200F091A3000995FF91B1
:1006D000EF91BF91AF919F918F917F916F915F91BA
:1006E0004F913F912F910F900FBE0F901F90189533
:1006F0001F920F920FB60F9211242F933F934F9397
:100700005F936F937F938F939F93AF93BF93EF9379
:10071000FF93E0919E00F0919F000995FF91EF916A
:10072000BF91AF919F918F917F916F915F914F9109
:100730003F912F910F900FBE0F901F9018951F9211
:100740000F920FB60F9211242F933F934F935F9305
:100750006F937F938F939F93AF93BF93EF93FF9389
:10076000E0919800F09199000995FF91EF91BF9168
:10077000AF919F918F917F916F915F914F913F9139
:100780002F910F900FBE0F901F9018951F920F92F0
:100790000FB60F9211242F933F934F935F936F9354
:1007A0007F938F939F93AF93BF93EF93FF93E091CA
:1007B0009A00F0919B000995FF91EF91BF91AF9145
:1007C0009F918F917F916F915F914F913F912F9169
:1007D0000F900FBE0F901F9018951F920F920FB69B
:1007E0000F9211242F933F934F935F936F937F93B7
:1007F0008F939F93AF93BF93EF93FF93E0919600F6
:10080000F09197000995FF91EF91BF91AF919F9162
:100810008F917F916F915F914F913F912F910F90A9
:100820000FBE0F901F9018951F920F920FB60F9248
:1008300011242F933F934F935F936F937F938F93E5
:100840009F93AF93BF93EF93FF93E0918600F09156
:1008500087000995FF91EF91BF91AF919F918F9183
:100860007F916F915F914F913F912F910F900FBEAC
:100870000F901F9018951F920F920FB60F92112490
:100880002F933F934F935F936F937F938F939F9398
:10089000AF93BF93EF93FF93E0918C00F0918D00A5
:1008A0000995FF91EF91BF91AF919F918F917F91AA
:1008B0006F915F914F913F912F910F900FBE0F90CD
:1008C0001F90189586E690E00E94490083E690E02C
:1008D0000E94490080E890E00E94E10687EC97E0E2
:1008E00061E040E022E030E00E9434078DEB97E0C9
:1008F00061E041E021E030E00E9434070E945007AF
:10090000FDCF1F93CF93DF93EC018B818093820007
:10091000209711F010E001C010E28881813009F4C5
:100920004CC0813020F0823009F0D8C093C083B72A
:1009300083BF89818130B9F0813018F08230E1F5D0
:1009400026C08A81882319F0813059F404C089B700
:100950008C7F89BF32C00E942D0189B7816089BF19
:100960002CC01F5F2AC083B78D6083BF8A81882314
:1009700019F0813059F404C089B78C7F89BF07C052
:100980000E942D0189B7816089BF01C01F5F83B7B5
:100990008C6083BF8A81882319F0813059F404C0A8
:1009A00089B78C7F89BF09C00E942D0189B78160FA
:1009B00089BF03C01F5F01C01F5F89818130D1F0F3
:1009C000813020F0823009F043C02BC01FBC1EBC18
:1009D0008A81882319F0813059F404C089B7837C57
:1009E00089BF7CC00E942D0189B7846089BF76C011
:1009F0001F5F74C08EB59FB587609FBD8EBD8A8115
:100A0000882319F0813059F404C089B7837C89BFE9
:100A100065C00E942D0189B7846089BF5FC01F5FD8
:100A20005DC08EB59FB586609FBD8EBD8A818823CF
:100A300019F0813059F404C089B7837C89BF4EC056
:100A40000E942D0189B7846089BF48C01F5F46C0DE
:100A50001F5F44C085B585BD8981882319F0813029
:100A6000E1F512C08A81882319F0813059F404C05D
:100A700089B78F7389BF32C00E942D0189B7806CFE
:100A800089BF2CC01F5F2AC082B5886082BD8A8161
:100A9000813049F0813018F08230F9F40AC089B70A
:100AA0008F7389BF1AC00E942D0189B7806C89BFDE
:100AB00014C082B5886082BD8A81882319F0813094
:100AC00059F404C089B78F7389BF07C00E942D01F4
:100AD00089B7806C89BF01C01F5F1F5F812FDF91C5
:100AE000CF911F910895813009F44FC0813020F0DB
:100AF000823009F0F3C097C080918200843021F1E8
:100B0000853030F4813051F0823009F0E9C011C0F5
:100B1000863029F1873009F0E3C02CC06F3F7105A2
:100B200008F0E0C083B7816083BF609562BF80E05A
:100B300008956F3F710508F0D7C083B7826083BF07
:100B4000609562BF80E008956F3F710508F0CEC0E8
:100B500083B7836083BF609562BF80E008956F3F75
:100B6000710508F0C5C083B7846083BF609562BF1C
:100B700080E008956F3F710508F0BCC083B78560C1
:100B800083BF609562BF80E00895809182008430C9
:100B900031F1853030F4813051F0823009F0ACC051
:100BA00012C0863041F1873009F0A6C030C08EB542
:100BB0009FB581609FBD8EBD709561957F4F7DBD56
:100BC0006CBD80E008958EB59FB582609FBD8EBDDF
:100BD000709561957F4F7DBD6CBD80E008958EB5A9
:100BE0009FB583609FBD8EBD709561957F4F7DBD24
:100BF0006CBD80E008958EB59FB584609FBD8EBDAD
:100C0000709561957F4F7DBD6CBD80E008958EB578
:100C10009FB585609FBD8EBD709561957F4F7DBDF1
:100C20006CBD80E0089580918200843079F1853038
:100C300040F48230C9F0833010F5813009F05EC095
:100C400008C08630B9F1863058F1873009F056C0B7
:100C50003BC06F3F710508F053C085B5816085BD0D
:100C6000609564BD80E008956F3F710508F04AC04B
:100C700085B5826085BD609564BD80E0089585B5C9
:100C8000836085BD609564BD80E008956F3F710508
:100C9000D8F585B5846085BD609564BD80E0089514
:100CA0006F3F710598F585B5856085BD609564BD1C
:100CB00080E008956F3F710558F585B5866085BD64
:100CC000609564BD80E008956F3F710518F585B5A6
:100CD000876085BD609564BD80E0089581E00895DA
:100CE00080E0089580E0089580E0089580E0089510
:100CF00080E0089580E0089580E0089580E0089500
:100D000080E0089580E0089580E0089580E00895EF
:100D100080E0089580E00895813051F0813018F02E
:100D2000823091F40CC083B7887F83BF80E0089540
:100D30008EB59FB5887F9FBD8EBD80E0089585B537
:100D4000887F85BD80E0089581E00895813059F065
:100D5000813018F08230C9F40EC088B78170FB0171
:100D6000808380E0089588B7869586958170FB0121
:100D7000808380E0089588B78295869586958370F4
:100D80008170FB01808380E0089581E00895FB017C
:100D9000813051F0813018F0823089F40BC082B775
:100DA0008083118280E008958CB59DB59183808306
:100DB00080E0089584B58083118280E0089581E009
:100DC00008950F931F93CF93DF93EC0109818091D6
:100DD00085008F5F80938500209711F010E001C09F
:100DE0001AE2002319F0023079F407C00E942D01A5
:100DF00084E790E00E94810408C00E942D018AE7E8
:100E000090E00E94810401C01F5F8881813099F4C5
:100E1000002319F0023069F406C080E06EE070E053
:100E20000E94730509C082E06EE070E00E947305C5
:100E300003C01F5F01C01F5F812FDF91CF911F9102
:100E40000F91089580918500813041F48EE690E005
:100E50000E9481041092850080E00895823010F095
:100E600086E0089581E0089550918500513091F415
:100E7000E42FF0E0EE0FFF1FEE0FFF1FEE0FFF1F3E
:100E8000E255FF4F918380836583348323831282ED
:100E900080E00895523010F086E0089584E00895CF
:100EA0000F931F93CF931092840020E00EEA10E07E
:100EB00030E0F901EE0FFF1FEE0FFF1FEE0FFF1FD7
:100EC000E00FF11F40815181C58182818130D9F1CC
:100ED00080918300813089F4C901880F991F880FA0
:100EE000991F880F991FF801E80FF91F86819781D4
:100EF00001969783868310928300F901EE0FFF1FFE
:100F0000EE0FFF1FEE0FFF1FE00FF11F8381948193
:100F1000268137818217930779F4FA010995E091C8
:100F20008400F0E0EE0FFF1FEE0FFF1FEE0FFF1F1C
:100F3000E00FF11F17821682CC2329F480918400E0
:100F40008F5F80938400209184002F5F2093840022
:100F5000223008F4ADCF80E0CF911F910F9108951A
:100F6000E82FF0E0EE0FFF1FEE0FFF1FEE0FFF1F49
:100F7000E255FF4F81E08283089582E060E10E94A4
:100F80000E01089580E060E10E940E01089581E065
:100F900060E10E940E01089581E08093830080E06B
:0E0FA0006EE070E00E9473050895F894FFCF94
:100FAE00031CFF02F0FF01F0FF00F0FFCC07000072
:100FBE000100000000000104000002000107000013
:020FCE00010020
:04000005008000BEB9
:00000001FF
